:020000040800F2
:1000000040080020DD020008A3370008EB33000899
:10001000A137000833200008453B0008000000001D
:10002000000000000000000000000000153900087A
:10003000BD20000800000000A5370008173900089F
:10004000F7020008F7020008F7020008F7020008AC
:10005000F7020008F7020008BF200008F7020008B6
:10006000F7020008F7020008F7020008F70200088C
:10007000F7020008F7020008F7020008F70200087C
:1000800035200008F7020008F7020008F702000810
:10009000F7020008F7020008F7020008F70200085C
:1000A000F7020008F7020008F7020008F70200084C
:1000B000F7020008F7020008F7020008F70200083C
:1000C000F7020008F7020008F7020008F70200082C
:1000D000F7020008F7020008F7020008F70200081C
:1000E000F7020008F7020008F7020008F70200080C
:1000F000F7020008F7020008F7020008F7020008FC
:10010000F7020008F7020008F7020008F7020008EB
:10011000F7020008F7020008F7020008F7020008DB
:10012000F7020008F7020008F7020008F7020008CB
:10013000F7020008F7020008F7020008F7020008BB
:10014000F7020008F7020008F7020008F7020008AB
:10015000F7020008F7020008F7020008F70200089B
:10016000F7020008F7020008F7020008F70200088B
:10017000F7020008F7020008F7020008000000007C
:10018000F7020008F702000800F002F800F096F805
:100190000AA090E8000C82448344AAF10107DA45E2
:1001A00001D100F08BF8AFF2090EBAE80F0013F09E
:1001B000010F18BFFB1A43F00103184784410000E8
:1001C000A4410000103A24BF78C878C1FAD8520779
:1001D00024BF30C830C144BF04680C6070470000C1
:1001E0000023002400250026103A28BF78C1FBD840
:1001F000520728BF30C148BF0B6070476E2900F01E
:10020000EB82702900F02D84662904F006806529B0
:1002100004F00380672904F00080612903F0FF8760
:1002200003681B0A28BF41F08001692900F0988209
:10023000642900F09582752900F092826F2900F000
:10024000BA83782900F0F983E92900F05583E4297D
:1002500000F05283F52900F04F83EF2900F0B783B7
:10026000F82900F0F8830368DB0928BF41F080011A
:10027000632901F04B81732901F05081E32901F0DA
:100280005B81F32901F06081002070471FB503F006
:10029000BAFF9DE8030000F0CBF901F0AFF90400CC
:1002A0000020002103F032FD401C6060002000218E
:1002B00003F016FDE0601FBD10B510BD01F070F930
:1002C0001146FFF7E3FF03F06DFC01F04DFA03B4B4
:1002D000FFF7F2FF03BC01F07DFA000009488047F8
:1002E00009480047FEE7FEE7FEE7FEE7FEE7FEE718
:1002F000FEE7FEE7FEE7FEE704480549054A064B30
:1003000070470000B1390008890100084002002050
:1003100040080020400400204004002070B506463C
:1003200000F06AF9056806F10B0020F00704B442FA
:100330009CBF002070BD2B466A68BAB11068A0420D
:1003400010D304F1080188423CBF5068586007D3BD
:100350005168101941601168091B016058601460F0
:10036000101D70BD13465268002AE7D12146284669
:1003700000F04AF90028DED170BD70B50446051FB3
:1003800000F03AF90068002C14BF446870BD002CDE
:1003900018BFAC423CBF20466468F8D301680A1815
:1003A000AA4218BF456003D12A680546114401607E
:1003B00028684119A1421CBF6C6070BD616869600A
:1003C00021680844286070BD53EA020C00F069807F
:1003D0002DE9F04B4FF00006002B1FBFB3FA83F559
:1003E00003FA05F424FA05F65E4012BF1643B2FA8A
:1003F00082F502FA05F4C5F120051EBF22FA05FCBC
:1004000044EA0C04203556EA044C4FEA144418BF61
:10041000641C4FF000084FF00009904271EB030C90
:1004200039D3002919BFB1FA81F701FA07F6B0FAFA
:1004300080F700FA07F6C7F120071EBF20FA07FC75
:1004400046EA0C062037B6FBF4FCA7EB0507103F85
:1004500007F01F0BCBF120060CFA0BFB2CFA06F66B
:1004600044BFB3460026202FA4BF5E464FF0000BCA
:100470005BEA060C08BF4FF0010B19EB0B09ABFB55
:10048000027C48EB0608C01B06FB02CC0BFB03CC2E
:1004900071EB0C01C1E70B46024641464846BDE8F8
:1004A000F08B13B54FF000004FF00001AFF3008068
:1004B000BDE81C40704700001CB50C46064B7B4451
:1004C00069460090204600F0A0F9044600206946E5
:1004D00000F0AEF920461CBD6F03000010B5431CB0
:1004E00002E010F8011B71B18107FAD14FF001321F
:1004F00002C88C1A8C4314EAC211F9D0C01A0A0639
:1005000003D0C01E10BDC01A10BD0A0401D0801E49
:1005100010BD0902FCD0401E10BD032A40F23080FD
:1005200010F0030C00F0158011F8013BBCF1020F34
:10053000624498BF11F801CB00F8013B38BF11F8B5
:10054000013BA2F1040298BF00F801CB38BF00F8CC
:10055000013B11F0030300F05383083AC0F0088018
:1005600051F8043B083A51F804CBA0E80810F5E72D
:10057000121D5CBF51F8043B40F8043BAFF3008010
:10058000D20724BF11F8013B11F801CB48BF11F885
:10059000012B24BF00F8013B00F801CB48BF00F855
:1005A000012B70474FF0000200B513469446964663
:1005B000203922BFA0E80C50A0E80C50B1F1200176
:1005C000BFF4F7AF090728BFA0E80C5048BF0CC024
:1005D0005DF804EB890028BF40F8042B08BF704782
:1005E00048BF20F8022B11F0804F18BF00F8012BF4
:1005F000704770477047704700487047E801002017
:10060000704770477047704738B504460A46002067
:100610006946AFF30080002808BF38BD0246009944
:10062000204600F023FB012038BD012000F0B0BFC0
:10063000F8B5AFF30080054600200C46102000BF3F
:100640000646A819A0420DD9324669460020AFF3EC
:100650000080070008BF00F09BFF0098A04218BF71
:100660000546C419FFF7C8FF05600746F01D20F0D6
:1006700007004619284600F00AF8B44208BFF8BD42
:10068000A21B31463868BDE8F84000F0EFBA0021FF
:100690000160C0E9011070471020704770B5044632
:1006A00085690068C10601D5302600E02026C00714
:1006B00007D070BDD4E9012130469047206A401C24
:1006C00020626D1EF6D570BD70B504468569007850
:1006D000C00707D170BDD4E9012120209047206ACE
:1006E000401C20626D1EF6D570BD09684A0501D513
:1006F00040B27047C905FCD500B2704709684A0589
:1007000001D5C0B27047C905FCD580B2704770B53D
:100710000C460546012A05D02878800600D5EA69EE
:10072000002302E0012305E05B1C934202D2E05C5F
:100730000028F9D1A869E618C01AA861286A1844E7
:1007400028622846FFF7AAFF04E0D5E9012114F842
:10075000010B9047B442F8D32846FFF7B5FF70BDB0
:100760002DE9F0410646002410687529314616A58A
:1007700010D0FFF7BAFF002802DA404213A507E0C5
:1007800031688A0701D512A502E0490704D511A5F1
:10079000012401E0FFF7B2FF00210A2206F124073D
:1007A00009E0B0FBF2FCB0FBF2F302FB1C003030BE
:1007B00078541846491C0028F3D123462A4630466F
:1007C000BDE8F04100F0B1BA000000002D000000CB
:1007D0002B0000002000000011680268006A530529
:1007E00001D508700AE0D30501D5088006E013069C
:1007F00003D5C217C1E9000200E00860012070477C
:1008000001694A1C02610878704700B58FB0CDE9D4
:1008100001310021059105497944CDE903101146C4
:10082000684600F029F90FB000BD0000E5FFFFFFAA
:100830000A6802F8010B0A60704700002DE9FF5FAB
:1008400015468A460446DFF8AC80F8440027D8E90C
:1008500000103E46CDE9001010E03AF816106A4646
:1008600002A800F075FE411C07D02178890603D547
:10087000E269391891420DD80744761C2078800629
:1008800002D5E069B84205DDAE42E6DB3AF8160073
:100890000028E2D1A069C01BA0612046FFF7FEFE40
:1008A000D8E90010CDE90010002017E03AF8181040
:1008B0006A4602A800F04CFEB0F1FF3F81460BD023
:1008C00000250DF1080B05E0D4E901211BF8050016
:1008D00090476D1C4D45F7D308F10100B0428046AA
:1008E000E4DB206A384420622046FFF7EDFEBDE8D5
:1008F000FF9F0000F63900002DE9F0418046D21D2F
:1009000022F007020025D2E90002F52915A614D02D
:10091000011E72F1000106DA0023D0EB030063EB45
:10092000020211A608E0D8F800108B0701D50FA627
:1009300002E0490701D50EA601251146002408F161
:10094000240704E000F0ACF930323A55641C50EA58
:100950000102F7D12B46324621464046BDE8F04120
:1009600000F0E3B9000000002D0000002B000000A3
:100970002000000030B4002100F1240408E002F05F
:100980000705D208303542EA4372DB086554491C3A
:1009900052EA0305F3D10468002310A2250707D506
:1009A000A40600D421B1C46901230DA2641EC46150
:1009B00030BC00F0BAB910B5044621461068FFF704
:1009C0009DFE02462046BDE810400023D2E7D21D1E
:1009D00022F00701D1E90023CCE70000000000006D
:1009E00030000000F0B40D460188090502D5214C05
:1009F0007C4402E01F4C7C440E34002100F12406AC
:100A000008E002F00F071209E75D42EA03721B09D2
:100A10007754491C52EA0307F3D1027800231207E6
:100A200004D5702D06D009B1022311342246F0BC42
:100A300000F07BB901231034F8E770B504460D4689
:100A400021461068FFF75AFE024629462046BDE8B7
:100A500070400023C6E7D21D22F00703D3E900232C
:100A6000C0E70368126843F0200303600823C361F2
:100A70000023B7E7583800002DE9F05F89460446A7
:100A80004FF0000ADFF874B1FB44C0F820A0204604
:100A9000E1688847002874D0252806D0D4E90121D0
:100AA0009047206A401C2062F1E700265F462046FE
:100AB000E16888472028054607DB312D05D27819E3
:100AC00010F8200C08B10643F1E7B00701D526F075
:100AD0000406C4F81CA00027C4F818A02A2D09D0C9
:100AE000284603F058F838B304EB8708303DC8F8BF
:100AF000185019E059F8041B204604EB8702916155
:100B0000E1688847012F054618D1E069002820DAFE
:100B100026F020061DE0D8F8180000EB800005EB59
:100B200040003038C8F818002046E168884705467C
:100B300003F031F80028EED1012F0AD02E2D08D174
:100B40002046E16888477F1C0546022F46F02006B4
:100B5000C4DBA069002803DA404246F00106A06128
:100B6000F00701D026F010066C2D0BD0682D09D0AF
:100B70004C2D39D06A2D35D0742D35D07A2D33D007
:100B800016E038E0E1682F4620468847B84205461F
:100B900009D16C2F26D04FF48060E16806432046CF
:100BA0008847054604E06C2F1AD04FF48070064346
:100BB0000DB3A5F14100192802D8203546F400668E
:100BC0004A462946204626604E46FFF717FB80B16D
:100BD00001280BD0F61D26F0070000F1080956E7A2
:100BE0004020E4E78020D8E70020D6E706F104099A
:100BF0004DE7284652E7206ABDE8F09FE83700003D
:100C000010B5203AC0F00B80B1E81850203AA0E8A7
:100C10001850B1E81850A0E81850BFF4F5AF5FEADB
:100C2000027C24BFB1E81850A0E8185044BF18C98E
:100C300018C0BDE810405FEA827C24BF51F8043B35
:100C400040F8043B08BF7047D20728BF31F8023B89
:100C500048BF11F8012B28BF20F8023B48BF00F81D
:100C6000012B704700487047E001002003464068B0
:100C70008C46002818BF88423CBF03464068F8D322
:100C800018681844884207D00CF1030020F00700D0
:100C9000001D411A521A0146081D0A60FFF76DBB7C
:100CA00030B5B0F10A024FEA900E71F100034EEA3E
:100CB000817EB0EB0E0061EB91014FEA101E4EEA0F
:100CC000017E10EB0E0041EB11114FEA102E4EEA9F
:100CD000016E10EB0E0041EB11214FEA104E4EEA6F
:100CE000014E10EB0E0041EB1141401841F10001A3
:100CF0004FEAD00040EA41704FEAD10110EB800585
:100D00004FEA810444EA907444EB01046D1944EB0A
:100D10000404521BA3414FF0000348BF0A3200D520
:100D200030BD401C41F1000130BD2DE9F0470D46BA
:100D300099469246044600F124080168880604D5C5
:100D4000E06921F01001216000E00120A84201DDEE
:100D5000471B00E00027A1697A1902EB0900081A75
:100D6000A0612078C00602D42046FFF797FC002639
:100D700008E0D4E901211AF806009047206A401CD7
:100D8000761C20624E45F4DB2078C0060AD520464A
:100D9000FFF784FC06E0D4E9012130209047206A67
:100DA000401C2062381EA7F10107F4DC07E0D4E9FB
:100DB000012118F805009047206A401C2062281E77
:100DC000A5F10105F3DC2046FFF77EFC2078000644
:100DD00002D50220BDE8F0870120FBE770472DE92E
:100DE000FF4F0C461E464FF0FF378BB0D2E9000193
:100DF000DDF860800A908A46C1F30A5505B93D4680
:100E0000002108464FF00000BAF1000F00F4400046
:100E100005DA00EB80004FF4400101EA50004FEA90
:100E20009059B9F1010F00DDB9460A9850EA4A001D
:100E30000ED044F61050A5F2FF3545432F14B8F1FB
:100E4000000F1ED07542291E1EDDC9F100021CE0F4
:100E5000B8F1010F4FF0000001D0302103E0F24360
:100E600005E02154401CB042FBDB3046002200214B
:100E700021540B99C1F80880C1E900200FB0BDE8EA
:100E8000F08FBD1B6D1CDEE74A4600DA694206A8FA
:100E900000F0F8FB06AB93E8070003AB83E807001C
:100EA00050460A9900F0FDFC8DE80700A0F50050BF
:100EB0001F3800900398002D0ADD42F21F014A46B8
:100EC0000844002303A90390684600F066FF09E088
:100ED000A0F500504A461F38002303A90390684636
:100EE00000F070FF8DE807000004000C03D04FF005
:100EF000FF30410800E01046B8F1000F03D0002297
:100F0000009215461EE0751E05D4FFF7C9FE30326B
:100F100062556D1EF9D5B3460122084302D0002266
:100F20007F1C04E02078302801D100227F1E002A97
:100F3000099784D01DE0112D07DAFFF7B1FE30329A
:100F400062556D1C50EA0102F5D1084302D00098A9
:100F5000C8B10EE00021681E05E0235C625C6354AA
:100F60002254401E491C8142F7DBAB46A81B401EA1
:100F70000990002004F80B000B98099AC0F808802B
:100F8000C0E9002B7AE711264FF0000857E72DE95A
:100F9000F04F88460446D21D22F0070191B0D1E9F6
:100FA0000001CDE90A0102F0CEFD02460B98C00F08
:100FB00001D02D2007E02068810701D52B2002E019
:100FC000202101EAC000032A099001D0072A05DB8D
:100FD00003464146204600F015FB0BE120788006D1
:100FE00001D5E06900E00620B8F1650F814606D022
:100FF000B8F1660F18D0B8F1670F70D131E000205A
:10100000B9F1110F009001DB112301E009F1010397
:101010000AAA01A90CA8FFF7E2FEDDE90C70002680
:1010200009F10105834647E001204B4600904FF04F
:1010300000470AAA01A90CA8FFF7D1FEDDE90DB00F
:101040000C995D46002610B909F101000D18B9EBA5
:10105000050003D4C0F1FF3609F10105A5EB090035
:101060002BE0B9F1010F01DA4FF001090020B9F1CD
:10107000110F0090484601DD112300E003460AAA43
:1010800001A90CA8FFF7ABFEDDE90C704D46002668
:101090008346207800070AD4AB4500DA5D4601A8F4
:1010A000012D04DD411911F8011C302907D04F45ED
:1010B00002DA17F1040F04DA012082460FE06D1EF8
:1010C000EEE7002F02DCED1B3E4403E0781CA84253
:1010D00000DD7D1CB81B00F1010A4FF000472078AD
:1010E000000703D4AA4501DB4FF0FF3A0021B7F116
:1010F000004F0DF143088DF8431024D002202B231C
:10110000002F01DA7F422D230A21021EA0F10100E7
:1011100000DC5FB197FBF1FC97FBF1F201FB1C7C5B
:1011200017460CF1300C08F801CDEEE7A8F10100EC
:1011300003702188090501D5452100E06521A0F152
:10114000010800F8011C09980FA9A1EB0807FF1D71
:1011500000B10120411901EBEA70A1693844081A75
:10116000401EA0612078C00602D42046FFF796FA00
:10117000099828B1D4E901219047206A401C2062D7
:101180002078C00622D52046FFF788FA1EE0002E00
:1011900004DBB34502DD01A8805D00E03020D4E926
:1011A00001219047206A401C2062761CAAF10100B0
:1011B0005FEA000A0AD100F021FAC0680168405CC9
:1011C000D4E901219047206A401C2062281EA5F125
:1011D0000105DCDC07E0D4E9012118F8010B904798
:1011E000206A401C2062381EA7F10107F3DC20466C
:1011F000FFF76AFA032011B041E600002DE9F04F35
:1012000004460D46D21D22F0070089B0D0E90097B0
:101210004846394602F097FC0246F80F01D02D23CC
:1012200007E02068810701D52B2302E0202101EA95
:10123000C0038DF820300BB1012000E00020032A0C
:10124000824601D0072A04DB2946204600F0DAF95D
:101250003FE12078800601D40D2500E0E569C7F361
:101260000A560D2D49DA00214FEA175B08464FF068
:101270000000002F00F4400007DA00EB80004FF47C
:10128000400100EBD07001EA60008115012901DD09
:101290004FF0FF3100224FEA850CBCF1180F06D346
:1012A0001346ACF118004FF08052C24003E04FF4F7
:1012B000801323FA0CF30CF10C0CBCF1200F04D3B7
:1012C000ACF1200C09FA0CF001E007FA0CF000294F
:1012D0004FF0004801DD18B90FE00ED140450CD3A6
:1012E00019EB02095F4121B9404502D19F4329EA28
:1012F0000209BBEB175F00D0761C2088000502D5E1
:101300007B48784402E07A487844193808AA3023A8
:1013100002F80A30037C0AF10101002E0AF1020AE8
:1013200053546A4602DC4FF0300101E04FF03101C6
:101330004FF001088DF8001002D0A6F2FF3603E04E
:1013400059EA470100D06B4E002D02DC21780907D5
:1013500004D54FF002082E218DF80110C44600215B
:101360000BE0C7F303433F01C35C491C6D1E02F849
:101370000830052908F1010801DA002DF1DC00210F
:101380000CE000EB1973491C1B786D1E082902F84C
:1013900008304FEA091908F1010801DA002DF0DCE4
:1013A00021688B0602D516E0A8F10108E04505DDAD
:1013B00002EB080313F8013C302BF5D0B8F1000F15
:1013C00009DD02EB080313F8013C2E2B03D10907BA
:1013D00001D4A8F10108002D05DD3E2102F8081016
:1013E0006D1E08F10108407C002E02F8080008F18B
:1013F000010804DA2D20764202F8080002E02B20D2
:1014000002F808000A214FF47A70864208F10108B8
:101410000BDB96FBF0F3303302F8083096FBF0F369
:1014200008F1010800FB136601E0642E0CDB642068
:1014300096FBF0F3303302F8083096FBF0F308F136
:10144000010800FB136601E00A2E06DB96FBF1F0B3
:10145000303002F8080008F1010896FBF1F001FBBA
:101460001060303002F80800A16908F1010808EBAB
:10147000050202EB0A00081AA0612078C00602D417
:101480002046FFF70BF9216A08AE01EB0A00206243
:1014900004E0D4E9012116F8010B9047BAF1010AE2
:1014A000F7D22078C00602D52046FFF7F7F86E463F
:1014B00009E016F8010B3E280FD0D4E9012190472E
:1014C000206A401C2062B8F10108F2D22046FFF7E2
:1014D000FBF809B00320BDE8F08F206A28442062A1
:1014E00003E0D4E90121302090476D1EEBD3F8E7EB
:1014F000922F000002FCFFFF10B5436913B1AFF358
:10150000008001E0FFF703F9012010BD127800F11F
:1015100024010A7000224A700122EDE711684FF0A1
:10152000FF32E9E710B5436913B1AFF3008001E082
:10153000FFF784F9012010BD128800F12401828494
:101540000022C2840122EDE711684FF0FF32E9E783
:1015500070B516460C46054600F048F8036893F847
:101560000101012806D0FF2C0FD8185D68B10120B9
:101570002C7070BDD3F807013246214603F20713E1
:1015800003442846BDE8704018474FF0FF3070BD57
:1015900010B500F0F7F8BDE8104000F0EEB8704765
:1015A0007546FFF75FFBAE4605006946534620F0DF
:1015B0000700854618B020B5FEF79EFEBDE8204026
:1015C0004FF000064FF000074FF000084FF0000BFF
:1015D00021F00701AC46ACE8C009ACE8C009ACE8B2
:1015E000C009ACE8C0098D467047000010B500F096
:1015F00005F8001D10BD00BF15270000004870470A
:10160000000200202DE9F0411F4604460326016830
:10161000072A01F4006004DB08B116A505E016A551
:1016200003E008B115A500E015A521F01000206029
:10163000A069C01EA0610FB1401EA0612046FFF747
:101640002DF84FB1D4E9012138469047206A401C5B
:101650002062C01C206206E0206AFAE7D4E901217A
:1016600015F8010B9047761EF8D22046FFF72CF8AC
:10167000BDE8F0814E414E006E616E00494E46005D
:10168000696E66002DE9F047814616468AB03548F6
:1016900078440DC88DE80D0032487844801C03ACB6
:1016A0000DC884E80D0041F69B300844372190FBBB
:1016B000F1F290FBF1F5A5F1800501FB12041B3C52
:1016C00002D56442012000E00020DFF898A08046A7
:1016D0000027FA44AAF1BE0A0EE0E0070AD032461B
:1016E000684607EB470101230AEB810100F06AFB22
:1016F0008DE8070064107F1C002CEED1194F7F4449
:10170000AE3F19E0E80715D007EB04100DF1180AF9
:1017100090E80E008AE80E00C068F04201D19819E6
:1017200008903246012306A903A800F04BFB03AB47
:1017300083E807006D10641C002DE3D14FF0010316
:1017400032466946B8F1000F03A802D000F025FB2D
:1017500001E000F037FBC9E90001C9F808200AB030
:10176000BDE8F087942C000010B50446AFF300806C
:101770002046BDE81040FEF7AABD002801D000F0C9
:1017800029B8704710B5012805D0002103A000F04A
:1017900027F8012010BD09A1F8E70000534947527E
:1017A000544D454D3A204F7574206F662068656131
:1017B00070206D656D6F7279000000003A204865F9
:1017C0006170206D656D6F727920636F72727570D4
:1017D0007465640001491820ABBEFEE726000200D4
:1017E00070B505460C460A2000E06D1C00F052F86A
:1017F00035B128780028F8D102E0641C00F04AF8DE
:1018000014B120780028F8D1BDE870400A2000F01B
:1018100041B800004FF0013C50F8042B51F8043B54
:101820009A4221D1A2EB0C03934313EACC1317D1B4
:1018300050F8042B51F8043B9A4215D1A2EB0C034B
:10184000934313EACC130BD150F8042B51F8043B0B
:101850009A4209D1A2EB0C03934313EACC13DBD0D9
:101860004FF00000704700BFD01A01BAB1FA81F101
:1018700001F0180122FA01F0CB40C1F12001DBB2E6
:10188000C0B2C01A2CFA01F3D11A914311EAC31164
:10189000E6D1704708B569468DF800000320ABBE5D
:1018A00008BD5FEA400C08BF91F0000F4FEA8C239F
:1018B0004FEAC12243EA51514FEA1C5018BF00F5CC
:1018C000F0404FEA300018BF41F000415FEA6C5C25
:1018D00000F02980BCF1FF3F08BF40F08040704716
:1018E000130C06BF12044FF0100C4FF0000C130E37
:1018F00004BF12020CF1080C130F04BF12010CF10B
:10190000040C930F04BF92000CF1020CD30F04BF20
:1019100052000CF1010C11464FF00002A0F11F0023
:10192000A0EB0C00704711F0004F08BF704731F07A
:1019300000413FF4D5AF0B0C06BF09044FF0100C6B
:101940004FF0000C0B0E04BF09020CF1080C0B0F3A
:1019500004BF09010CF1040C8B0F04BF89000CF1CA
:10196000020CCB0F04BF49000CF1010CCCF1200399
:10197000A0EB0C0022FA03F302FA0CF241EA030195
:1019800000F10100704720F07F4C80EA030023F053
:101990007F47ACEB070303F57C5300F0004003F1F5
:1019A000FF032DE980494FEA154B09B44FEA144370
:1019B00025EA0B4E24EA03480FF2042606EB132710
:1019C00049083E785FEA320203FB0667C7F5000765
:1019D00007FB06F64FEA54374FEAD64606F10206F1
:1019E00007FB066CCCF1005C4FEA1C472CEA074C65
:1019F00007FB06F40CFB06F504EB15464FEA9616BA
:101A000034BF00204FF000404FEAD13706FB07FCFF
:101A10004FEA1C4C0CFB0BF7D21B03FB0CF761EBE2
:101A200007010CFB0EF7B0EB074072EB17420CFB03
:101A300008F734BFA2EB0742B2EB074261EB174154
:101A40004FEA0C444FEA910706FB07FC4FEA1C4C97
:101A50000CFB0BF7B0EBC74072EB573203FB0CF7F4
:101A600034BFA2EBC742B2EBC74261EB57310CFB6C
:101A70000EF7B0EBC70072EB57720CFB08F734BFE0
:101A8000A2EBC702B2EBC70261EB5771039F4FEAAB
:101A9000816141EA921104EBCC044FEAD1374FEA5D
:101AA000826206FB07FC42EA90124FEA80604FEA2E
:101AB0001C4C0CFB0BF7D21B03FB0CF761EB070173
:101AC0000CFB0EF7B0EB074072EB17420CFB08F76C
:101AD00034BFA2EB0742B2EB074261EB17414FEA7A
:101AE0008C554FEA910704EB9C2406FB07FC4FEA58
:101AF0001C4C0CFB0BF7B0EBC74072EB573203FBEF
:101B00000CF734BFA2EBC742B2EBC74261EB5731CF
:101B10000CFB0EF7B0EBC70072EB57720CFB08F72B
:101B200034BFA2EBC702B2EBC70261EB577115EBF2
:101B30004C254FEA816141EA92114FEA82624FEAF5
:101B4000D13742EA901206FB07FC44F100044FEA49
:101B500080604FEA1C4C0CFB0BF7D21B03FB0CF70D
:101B600061EB07010CFB0EF7B0EB074072EB17427D
:101B70000CFB08F734BFA2EB0742B2EB074261EB64
:101B8000174115EB1C154FEA813141EA92414FEAAA
:101B9000823242EA90424FEA80304FEA0C7644F1BA
:101BA000000448EA03434EEA0B484FF0000EB2EB44
:101BB000080C71EB030724BF624639464EEB0E0E4C
:101BC0004FF0000B0018524149414BEB0B0BB2EBAD
:101BD000080C71EB03077BF1000B24BF624639460A
:101BE0004EEB0E0E4FF0000B0018524149414BEBEB
:101BF0000B0BB2EB080C71EB03077BF1000B24BF5E
:101C0000624639464EEB0E0E51EA020718BF46F007
:101C1000010616EB0E7655F1000254F1000103D5D2
:101C2000BDE88901BDE80088BDE88901BDE800483C
:101C3000B619524141EB0101A3F1010370478080C5
:101C40007F7E7D7C7B7A7978777676757473727116
:101C500071706F6E6E6D6C6C6B6A6A6968686766CE
:101C600066656464636362616160605F5F5E5E5D60
:101C70005D5C5C5B5B5A5A595958585757565655D4
:101C800055555454535352525251515050504F4F36
:101C90004F4E4E4D4D4D4C4C4C4B4B4B4A4A4A4986
:101CA00049494848484747474746464645454544C9
:101CB0004444444343434342424242414141002B56
:101CC0009C4630D477002BD01CB54FEA370703B4BD
:101CD0004FF010004FF01001BAF1000F06D0BCF128
:101CE000000FDCBF40F0080040F008014FF000009A
:101CF0000FBCBDE810400BF1010BBBF1010F08BF99
:101D00005FEA170722BF12F1010211F101014FF042
:101D1000004143F1000300F0004043EA0000704737
:101D2000F9D35708D0E746EA064613F1400F4FEAC9
:101D300016461FDD13F1200FDFBF16430A460021B0
:101D400020335B42BED0C3F1200746EA064602FAC2
:101D500007F74FEA164646EA0706C3F1200722FABC
:101D600003F201FA07F721FA03F14FF0000342EA08
:101D70000702A7E746EA020646EA06464FEA164683
:101D800046EA0106BCBF46EA0646360C4FF00003A1
:101D90004FF000024FF0000194E72DE9804C9A4685
:101DA000934670B491E8380007C831EA400C48BF48
:101DB00034EA430C03D5FFF7E6FDFFF780FFF0BCE4
:101DC000BDE8008C2DE9804C9A46934670B491E8AA
:101DD000380007C810F0804F08BF13F0804F03D1C0
:101DE00000F005F8FFF76BFFF0BCBDE8008C20F0B9
:101DF0007F4780EA030023F07F4C07EB0C03A3F539
:101E00007C5300F00040A3F1FE0392F0000F00F0BD
:101E1000B38095F0000F00F077802DE901494FEA7B
:101E200011404FEA144621EA004800FB06FC24EA70
:101E3000064708FB06F607FB08F800FB07F718EB58
:101E400006484CEB164C4FEA124B18EB07484FEA8A
:101E500015464CEB174022EA0B4E0BFB06FC25EA1D
:101E600006470EFB06F607FB0EFE0BFB07F71EEB05
:101E7000064E4CEB164C4FF000061EEB074E4CEB9B
:101E8000174B18EB0B0840F1000018EB0E0B58EB4A
:101E9000000840F100008F1A4FF000013CBFC94319
:101EA000661B14BFB5EB040C00213CBFC943F61BF5
:101EB0004FEA17444EEA8E0E27EA04454FEA1C47C4
:101EC00004FB07622CEA074C05FB07F70CFB05F641
:101ED00004FB0CFC16EB074642EB174216EB0C46D4
:101EE00042EB1C421BEB060658EB0202414146EA5C
:101EF0009E0601D5BDE80189B619524141EB0101A9
:101F0000A3F10103BDE801894FEA14454FEA1147E7
:101F100024EA054621EA074C05FB07F406FB07F710
:101F20000CFB06F105FB0CFC11EB074144EB1744DD
:101F30004FEA124711EB0C4144EB1C4422EA074CD8
:101F400005FB07F206FB07F70CFB06F605FB0CFC8E
:101F500016EB074642EB174216EB0C4642EB1C45CC
:101F60006A1854F1000148BF7047B619524141EB5D
:101F70000101A3F10103704795F0000F37D04FEA3C
:101F800011424FEA144721EA024624EA074C02FBB9
:101F900007F106FB07F70CFB06F402FB0CFC14EB45
:101FA000074441EB17414FEA154714EB0C4441EB52
:101FB0001C4125EA074C02FB07F506FB07F70CFB63
:101FC00006F602FB0CFC16EB074645EB174516EB35
:101FD0000C4645EB1C42121951F1000148BF7047F5
:101FE000B619524141EB0101A3F1010370474FEAD9
:101FF00014454FEA114724EA054621EA074C05FB40
:1020000007F106FB07F70CFB06F24FF0000605FB95
:102010000CFC12EB074241EB174112EB0C4251EB67
:102020001C4148BF7047921841EB0101A3F1010325
:102030007047FEE7014800F047B80000800100202B
:1020400001681823CAB2103AB2FBF3F2054B6FF3E2
:102050000901032A9B5CC36500D9091D81650846F7
:10206000704700002242000810B5014600208B692D
:102070008A6A4FF0C07453B1B3F5005F15D072B1E6
:10208000012A0CD0022A0AD0032A09D104E01AB18D
:10209000012A06D0022A03D1C96AC90100D501204C
:1020A00010BDC96AA142FAD010BD002AF7D0012A9A
:1020B000F2D0022AF3D0032AF3D010BD70470120DA
:1020C00000F054B972B6FEE72DE9F84304464FF02C
:1020D0000009CDF8009063484FF41651A56D0068D3
:1020E000B0FBF1F72E6894F85C10082000FA01F1BB
:1020F00031420FD021680A6852070BD50A6822F0D6
:1021000004020A6094F85C108840A860606D40F09A
:102110000100606594F85C104FF0010808FA01F0C6
:10212000304208D021684969090604D5A860606D6D
:1021300040F00200606594F85C1004208840304252
:1021400008D021680968890704D5A860606D40F04F
:102150000400606594F85C1010208840304218D06C
:1021600021680968090714D5A86020680168490337
:1021700004D50068000308D5A16C07E00168C90513
:1021800003D4016821F008010160216C09B12046E7
:10219000884794F85C1020208840304231D0216874
:1021A0000968C9062DD5A86094F83500052820686F
:1021B000016806D0490347D5006800031DD4616C4F
:1021C0001CE021F0160101602068416921F08001C6
:1021D0004161206C08B9A06C20B12068016821F031
:1021E0000801016094F85C103F208840A86084F8E2
:1021F000358084F83490216D1FE0E16B09B12046F1
:102200008847606D00282BD0606DC00714D0052072
:1022100084F835002068016821F001010160009810
:10222000401C0090B84203D820680068C007F6D16F
:1022300084F8358084F83490E16C002910D001B026
:102240002046BDE8F04308470168C905D5D40168B8
:1022500021F01001016084F8358084F83490CCE7D7
:10226000BDE8F8839C0000202DE9F041044600F011
:1022700087F906465CB1022084F83500002584F811
:1022800034502068016821F0010101600DE0012057
:10229000BDE8F08100F074F9801B052805D92020E5
:1022A0006065032084F83500F2E720680068C00705
:1022B000F0D12268116820480140D4E90103184395
:1022C000D4E903363343184363691843A3691843B9
:1022D000E3691843236A18430843616A042903D158
:1022E000D4E90B1319430843106020684069666AFB
:1022F00020F0070130460E43012704280CD1A06AC4
:102300000643E06A40B12046FFF7AEFE20B1402010
:10231000606584F83570BAE7206846612046FFF7AB
:102320008FFE94F85C203F2191408160656584F8C0
:1023300035700020ACE700003F8010F070B5044617
:1023400000F01EF90546601C02D0044800780444E1
:1023500000F016F9401BA042FAD370BD9000002097
:10236000014801F0D7B8000004000020044910B56E
:102370000A68024202D00860FFF7F2FF10BD0000B9
:10238000143C01402DE9F84FDFF8BCA100220125E3
:1023900003264FF00F090AF1040BAAF1040E00BF47
:1023A0000B6805FA02F42340A34270D10F7907F0BD
:1023B0000307012F01D0022F16D187684FEA420888
:1023C00006FA08FC27EA0C07D1F80CC00CFA08FC46
:1023D0004CEA070CC0F808C04768A7430C79C4F35F
:1023E000001494403C4344600C79E443A4070AD0B1
:1023F000C4684FEA420C06FA0CF7BC438F6807FA30
:102400000CF72743C7600C7904F00304022C12D1A7
:10241000D40800EB840CDCF820405707FF0E09FAC3
:1024200007F824EA0804D1F8108008FA07F848EA07
:102430000408CCF8208004684FEA420C06FA0CF736
:10244000BC430F7907F0030707FA0CF7274307602F
:102450004C6814F4403F70D03C4C276847F48047E8
:102460002760246822F0030704F480440094384C69
:1024700007EB040CDCF8084897074FEA177809FACD
:1024800008F7BC43334FB84202D1002724E054E0A0
:10249000314FB84201D101271EE0304FB84201D17F
:1024A000022719E02E4FB84201D1032714E02D4F27
:1024B000B84201D104270FE02B4FB84201D10527C4
:1024C0000AE02A4FB84201D1062705E0284FB8425A
:1024D00001D1072700E0082707FA08F72743CCF8BF
:1024E0000878DAF800405746D1F804C09C435FEA08
:1024F000CC2C00D51C433C60DBF800405F46D1F893
:1025000004C09C435FEA8C2C00D51C433C60DEF881
:1025100000407746D1F804C09C435FEA8C3C00D56C
:102520001C433C60084F083F3C68D1F804C09C4302
:102530005FEACC3C00D51C433C60521C102AFFF4DF
:102540002FAFBDE8F88F0000083C0140443802403E
:102550000030014000000240000402400008024038
:10256000000C02400010024000140240001802401B
:10257000001C02400AB1816170470904FBE70000BA
:102580000148806870470000900000200248816880
:102590000278114481607047900000200B4810B50C
:1025A000016841F400710160016841F480610160DB
:1025B000016841F480710160032000F06FF80F2082
:1025C00000F006F800F024F8002010BD003C0240A6
:1025D00070B50D4D04464FF47A712878B1FBF0F0D8
:1025E0000A490968B1FBF0F000F0EFFD48B9102C82
:1025F00007D200222146501E00F030F800206C6007
:1026000070BD012070BD0000900000209C000020E3
:102610000A4808B5016841F480410160006800F48F
:10262000804000900548001F016841F08051016022
:10263000006800F08050009008BD0000443802405F
:10264000002809DB00F01F020121914040098000B1
:1026500000F1E020C0F8001170470000F0B40E4B0C
:102660001B680C46C3F30223C3F10705042D00D9F0
:102670000425191D072901D2002300E0DB1E0126D5
:1026800006FA05F1491E214099409E40761E1640EB
:102690003143F0BC01F06FBA0CED00E0064900F0E8
:1026A000070208684FF6FF03184040EA0220034A79
:1026B00010430860704700000CED00E00000FA05D0
:1026C0002DE9F0470E46050065D0DFF81481D8F8F3
:1026D0000000F7B200F00700B04207D288F800709F
:1026E000D8F8000000F00700B04254D128683D4CF3
:1026F000810712D5400703D5206840F4E0502060E0
:102700002878000703D5206840F4604020602068E6
:10271000A96820F0F000084320602878C0072DD079
:10272000304968680839012812D0022813D00328DC
:1027300011D00968890700292DDA216821F00301E9
:1027400001432160FFF71CFF814641F2883A0EE009
:1027500009688903EFE709688901ECE7FFF710FFD3
:10276000A0EB0901514502D90320BDE8F08720689C
:10277000696800F00C00B0EB810FEFD1D8F80010C1
:10278000404601F00701B14207D90770006800F028
:102790000700B04201D00120E7E72878400705D5BF
:1027A0002068E96820F4E05008432060287800079A
:1027B00006D52068296920F4604040EAC100206005
:1027C00000F038F82168084AC1F30311515CC84091
:1027D0000649086006480068FFF7FAFE0020C4E7D3
:1027E000003C0240083802402A4200089C000020B9
:1027F000940000200448054900680968044AC1F3B0
:102800008221515CC84070479C000020083802407B
:102810003A4200080448054900680968044AC1F3BF
:102820004231515CC84070479C000020083802408B
:102830003A420008154810B5006810F00C02144820
:1028400013D04110042A0FD0082A0ED10F4C241F98
:102850002268236802F03F025B0207D52068C0F3BC
:102860008810A0FB010106E0084610BD2168C1F3F5
:102870008811A1FB00010023FDF7A6FD2168C1F32B
:102880000141491C4900B0FBF1F010BD083802407D
:102890000024F4002DE9F84F04006ED02078DFF812
:1028A0004C93C007A9F104054AD009F1040001685E
:1028B000C1F38101012908D00068C0F3810002281A
:1028C0000AD1D9F80000400206D52868800337D520
:1028D00060680028E1D033E06068B0F5803F10D038
:1028E000B0F5A02F286810D020F480302860286828
:1028F00020F4802028606068A8B1FFF741FE0646FA
:102900000DE0286840F48030F4E740F4802028602F
:10291000F7E700BFFFF734FE801B642873D82868F0
:102920008003F7D50CE0FFF72BFE064605E000BF5D
:10293000FFF726FE801B6428F0D828688003F7D4B0
:102940002078DFF8AC8280074FF0000A3ED5A74818
:10295000001D016811F00C0F08D00068C0F3810061
:1029600002280BD1D9F80000400207D4286880075C
:1029700016D5E068012800D112E033E1E068B8B173
:102980000120C8F80000FFF7FBFD064605E000BF88
:10299000FFF7F6FD801B0228C0D828688007F7D50E
:1029A0002868216920F0F80040EAC10028600DE0A5
:1029B000C8F800A0FFF7E4FD064604E0FFF7E0FDDD
:1029C000801B02281FD828688007F7D420780007CA
:1029D00022D5864F87486169703771B10121016046
:1029E000FFF7CEFD064604E0FFF7CAFD801B022874
:1029F00009D838688007F7D50EE0C0F800A0FFF7C7
:102A0000BFFD064605E082E0FFF7BAFD801B022805
:102A10007DD838688007F7D42078400768D5DFF87C
:102A2000CCB100270BF13C0BDBF80000C0000BD44D
:102A3000DBF8001041F08051CBF80010DBF800000B
:102A4000012700F0805000906B4E3068C00510D414
:102A5000306840F480703060FFF792FD009005E030
:102A6000FFF78EFD0099401A022850D83068C00543
:102A7000F6D55E4EA0686C3601280FD00528306868
:102A800010D020F001003060306820F00400306089
:102A9000A068B8B1FFF774FD00900FE0306840F017
:102AA0000100F4E740F004003060F7E7FFF768FD4D
:102AB0000099411A41F28830814266D83068800717
:102AC000F4D50EE0FFF75CFD009007E0FFF758FD3E
:102AD0000099411A41F28830814256D83068800707
:102AE000F4D42FB1DBF8001021F08051CBF80010A6
:102AF000A069C8B33D49091D0968C1F381010229D4
:102B00004AD00228504607D0C8F8600000E03CE0F8
:102B1000FFF736FD04463BE04746C8F86000FFF784
:102B20002FFD064605E000BFFFF72AFD801B0228A7
:102B30002BD828688001F7D4D4E907010843A16A9B
:102B40002E4A490802EB0141626A41EA82110843B8
:102B500094F82C1040EA0161C9F800100120386691
:102B6000FFF70EFD044606E03EE000BFFFF708FD5C
:102B7000001B022809D828688001F7D534E000BF7F
:102B8000FFF7FEFC001B022802D90320BDE8F88FE6
:102B900028688001F4D427E00128F7D0D9F8000094
:102BA000E26900F4800191421CD1226A00F03F01E9
:102BB000914217D147F6C071626A0140B1EB821FA2
:102BC00010D1A26A4FF0FF3300F4403103EB520200
:102BD000B1EB024F06D194F82C1000F07060B0EB0E
:102BE000016F01D00120D1E70020CFE70438024077
:102BF00000004742800E4742007000400000FFFF87
:102C000070B5040009D0606A002540B12561656196
:102C1000A56294F8510040B10CE0012070BD6068DD
:102C2000B0F5827FF4D0E561F2E784F85050204699
:102C300000F044F8022084F851002068016821F077
:102C400040010160A088218900F4827001F40441F0
:102C50000843A18901F400610843217C01F00201CD
:102C60000843217D01F001010843218B01F400712B
:102C70000843217F01F03801084394F8201001F047
:102C800080010843218D01F4005108432168086048
:102C9000A069042101EA104094F8241001F0100109
:102CA0000843216848602068C16921F40061C1615E
:102CB0006565012084F85100002070BD10B586B014
:102CC000044614216846FDF76DFC144920688842CB
:102CD00021D113480021026842F4004202600068DA
:102CE00000F4004005900E481038026842F00402DB
:102CF0000260006800F0040005904FF4E05000907E
:102D00000220CDE9010103200390062004906946CA
:102D10000448FFF737FB06B010BD0000003C004040
:102D200040380240000802402DE9F84F0446406850
:102D30000025984616460F464FF0040BB0F5827FEB
:102D400001D1A06888B194F85000012818D0012062
:102D500084F85000FFF714FC814694F851004FF0BE
:102D6000000A01280ED0022582E084F851B01346F3
:102D70000A462046CDF8008000F036F9BDE8F88F0D
:102D80000220FBE7002F72D0002E70D084F851B0E3
:102D9000C4F854A0A763A687E687C4F830A0A4F8B7
:102DA00034A0A4F836A0C4F840A0C4F844A0A06899
:102DB000B0F5004F09D12068016821F040010160A1
:102DC0002068016821F4804101602068016849069B
:102DD00003D4016841F040010160E068D8B139E0F6
:102DE00020688168C90709D0007BA16B0870A06BBF
:102DF000401CA063E08F401EE0870CE0FFF7C0FBA3
:102E0000A0EB0901414503D3B8F1FF3F03D036E001
:102E1000B8F1000F33D0E08F0028E1D11DE0206829
:102E20008168C90709D0C068A16B0880A06B801CAD
:102E3000A063E08F401EE0870CE0FFF7A1FBA0EB52
:102E40000901414503D3B8F1FF3F03D017E0B8F1C2
:102E5000000F14D0E08F0028E1D14A4641462046B9
:102E600000F0A1FC08B120206065606D00B1012573
:102E7000012084F8510084F850A028467EE70325FD
:102E8000F6E72DE9F84F044690F8500000271D465C
:102E90001646894601280DD04FF0010B84F850B03A
:102EA000FFF76EFB804694F85100BA46012804D023
:102EB000022793E00220BDE8F88FB9F1000F73D02C
:102EC000002E71D0032084F85100C4F854A0C4F837
:102ED0003090A686E686C4F838A0A4F83CA0A4F8F2
:102EE0003EA0C4F844A0C4F840A0A068B0F5004FCC
:102EF00009D12068016821F0400101602068016863
:102F000041F48041016020680168490603D40168EA
:102F100041F040010160E068B0F5006F606803D0E7
:102F200030B3012E24D041E008B1012E1CD1206B1A
:102F300021680088C86006E020688168890709D593
:102F4000216B0988C160206B801C2063E08E401ECD
:102F5000E08609E0FFF714FBA0EB0800A84202D3CB
:102F6000681C01D031E07DB3E08E0028E4D120E080
:102F7000206B21680078087306E020688168890763
:102F800009D5216B09780173206B401C2063E08E0A
:102F9000401EE0860AE0FFF7F3FAA0EB0800A84223
:102FA00003D3681C02D010E017E06DB1E08E00285A
:102FB000E3D142462946204600F024FC08B12020F7
:102FC0006065A06818B106E0FFE7032706E0206807
:102FD000C16880680090606D00B1012784F851B02D
:102FE00084F850A0384666E72DE9F84F044690F87B
:102FF000500000270A9E1D4692468B464FF001095D
:1030000001280ED0012084F85000FFF7B9FA80465D
:1030100094F85100616801280CD0B1F5827F07D186
:1030200002E00220BDE8F88FA16809B9042801D0A8
:103030000227C2E0BBF1000F27D0BAF1000F24D065
:103040001DB394F85100042802D0052084F85100E3
:1030500000206065C4F838A0E587A587C4F830B0C3
:10306000E586A5862064606420680168490603D46B
:10307000016841F040010160E068B0F5006F6068F0
:1030800005D0E8B3012D46D07FE0012795E008B1D7
:10309000012D39D1206B21680088C860206B801C0D
:1030A0002063E08E401EE0862EE02068816889075C
:1030B0000FD5E18E69B1B9F1010F0AD1216B0988F1
:1030C000C160206B801C2063E08E401EE0864FF0C4
:1030D000000920688168C9070CD0E18F51B1C06830
:1030E000A16B0880A06B801CA063E08F401EE0876E
:1030F0004FF00109FFF744FAA0EB0800B04200E0EE
:1031000009E001D3701C50D1E08E0028CDD1E08FB2
:103110000028CAD13FE0206B216800780873206B3B
:10312000401C2063E08E401EE0862EE0206881680F
:1031300089070FD5E18E69B1B9F1010F0AD1216B71
:1031400009780173206B401C2063E08E401EE086EE
:103150004FF0000920688168C9070CD0E18F51B198
:10316000C068A16B0870A06B401CA063E08F401E7C
:10317000E0874FF00109FFF703FAA0EB0800B04227
:1031800002D3701C01D010E07EB1E08E0028CDD1BA
:10319000E08F0028CAD142463146204600F032FB7B
:1031A00028B101272020606507E0032705E0A0681B
:1031B00018B92068C16880680090012084F8510027
:1031C000002084F8500038462CE710B5401EB0F1BE
:1031D000807F01D3012010BD4FF0E02460610F21FA
:1031E000601700F0C8FC0020A061072020610020CB
:1031F00010BD70B5040004D094F83D00002510B156
:1032000006E0012070BD84F83C50204600F022F812
:10321000242084F83D002068C16821F40051C16079
:10322000204600F0CDFB2068016921F49041016146
:103230002068416921F02A0141612068C16841F498
:103240000051C1602564202084F83D0084F83E00D0
:10325000002070BDF0B587B0064614216846FDF722
:10326000A1F92F49DFF8B4C0376800252C48103980
:10327000022203230724674531D1076847F400374A
:103280000760006800F400300590086840F0010015
:1032900008600868694600F0010005900C208DE880
:1032A0002500CDE903341F48FFF76CF81F4C1E487A
:1032B00020604FF00060C4E901054014C4E90350E8
:1032C0006561A561E561256220466562FEF7CCFF78
:1032D00008B1FEF7F7FEB463A66307B0F0BD144E65
:1032E000B742FAD1066846F480260660006800F40A
:1032F00080200590086840F008000860086869466A
:1033000000F0080005904FF440708DE82500CDE9ED
:1033100003340848FFF736F8DFE7000000440040B8
:1033200040380240000002408860024080010020D6
:1033300000480040000C02402DE9F843044690F894
:103340003D001F4616460D4620284CD1C5B1BEB1E2
:1033500094F83C00012846D0012084F83C004FF04E
:103360000008C4F84080212084F83D00FFF708F9E8
:10337000A6848146E684A068B0F5805F03D004E0AF
:103380000120BDE8F883206928B12E465FF00005D2
:1033900084F83C800EE00026FAE78021204600F009
:1033A00095FBA0B9AEB116F8010B21684860E08C1E
:1033B000401EE084E08C4B464FF00002009700284E
:1033C000EBD14FF04001204600F080FB30B10320EC
:1033D000D7E735F8020BC0F30800E6E7202084F8B1
:1033E0003D000020CDE70220CBE7FEE738B50446DC
:1033F000818800680022FFF7BDF842208DF80000A8
:103400000C4D15208DF801003223022269462868F0
:10341000FFF737FD19208DF801003223022269469B
:103420002868FFF72EFDA18801222068FFF7A2F887
:1034300038BD00000000002038B5044690F8580060
:1034400000281ED0C1208DF80000A188002220682D
:10345000FFF790F80B4D3223012269462868FFF7E9
:1034600010FD9623292204F12F012868FFF75CFC48
:10347000A18801222068FFF77DF8204600F050F86F
:10348000012038BD0000002001490860704700009D
:10349000000000202DE9F84304464FF47A771E46D9
:1034A00090460D463846DDF82090FEF747FF20464F
:1034B000FFF79CFF3846FEF741FFA18800222068F5
:1034C000FFF758F841208DF800004FEA881040EAD5
:1034D000461040EA0910642D14D0C82D15D040F0D4
:1034E0000B0000BF8DF80100094832230222694613
:1034F0000068FFF7C6FCA18801222068FFF73AF8B0
:10350000BDE8F88340F00C00ECE740F00D00E9E77F
:103510000000002010F8581F41F0010101707047B1
:1035200070B5044600F12F012DED028B2922801D7C
:10353000FCF7F3FF608BE28B40BA01B200EE101A89
:10354000A08B52BAF8EEC00A40BA00B212B29FED98
:10355000470A80EE801A00EE900AF8EEE00A84ED49
:10356000171A80EE801A00EE902AF8EEE00A84ED39
:10357000181A80EE801A84ED191A34F8080F40BA30
:1035800002B200EE102A6088F8EEC00A9FED380AF9
:1035900040BA01B280EE801A00EE901AA088F8EED0
:1035A000E00A40BA00B284ED181A80EE801A00EEEC
:1035B000900AF8EEE00A84ED191A80EE801A84ED84
:1035C0001A1AE08840BA01B2208940BA06B260896E
:1035D00040BA05B2084600F039FD9FED268B53EC4A
:1035E000182B00F0DBFB00F0A7FBE066304600F094
:1035F0002DFD53EC182B00F0D1FB00F09DFB206754
:10360000284600F023FD53EC182B00F0C7FB00F018
:1036100093FB6067E189A08949BA0EB2218A40BA5A
:1036200049BA00B20DB200F011FD9FED148B53ECBE
:10363000182B00F0B3FB00F07FFBA067304600F0D2
:1036400005FD53EC182B00F0A9FB00F075FBE067BB
:10365000284600F0FBFC53EC182B00F09FFB00F019
:103660006BFBC4F88000BDEC028B70BD0000C8424B
:1036700000FC7F466666666666663040CDCCCCCC84
:10368000CCCC1A402DE9F04186B014216846FCF7F5
:1036900089FF2F480024016841F010010160016892
:1036A00001F010010591016841F08001016001689D
:1036B00001F080010591016841F00101016001689C
:1036C00001F001010591016841F008010160016804
:1036D00001F008010591016841F0040101600068F2
:1036E000DFF8708000F004000590012208214046B8
:1036F000FEF740FF184F4FF48056002231463846FF
:10370000FEF738FF082000900125CDE901546946F5
:1037100040460394FEF736FE0096CDE90154694613
:1037200038460394FEF72EFE4FF488100095CDE93D
:10373000010469464046FEF725FE00221146062098
:10374000FEF78CFF0620FEF77BFF06B0BDE8F08198
:103750003038024000100240000C02400F4810B503
:103760000D4901604FF482714160002102228160A5
:10377000C0E9031201224261520282613022C0E993
:103780000721416281620A21C162FFF739FA0028EC
:1037900001D072B6FEE710BD003C0040A000002042
:1037A000FEE7FEE77047F8B5044640684FF48273C1
:1037B000984221D1A0684FF48065B0F5004F01D048
:1037C000A8420AD12068066826F0400606606068B4
:1037D000984211D1A068A8420ED000920B46002258
:1037E0008021204600F03AF8002804D0606D40F0B7
:1037F000200060650320F8BD00920B4600220121E5
:10380000EFE7000038B504461248134B0068B0FBE0
:10381000F3F04FF47A73584300906068B0F5827FFC
:103820000DD10B46009200228021204600F016F8B0
:1038300070B1606D40F020006065032038BD0098D5
:1038400030B1401E009020688068C0430006F6D565
:10385000002038BD9C00002000366E012DE9F843A1
:103860001E46914688460446089DFEF789FE401B89
:10387000351AFEF785FE074625480068C0F3CB30B1
:10388000684338E0701C37D0FEF77AFEC01BA842B0
:1038900003D215B1009860B32CE02068416821F094
:1038A000E00141606068B0F5827F0BD1A068B0F59F
:1038B000004F02D0B0F5806F04D12068016821F07C
:1038C00040010160A06AB0F5005F09D1206801687D
:1038D00021F4005101602068016841F40051016049
:1038E000012084F85100002084F850000320BDE836
:1038F000F8830025401E00902068816838EA0100A6
:1039000004D000214945BDD10020F0E70121F9E7AD
:103910009C0000207047FEF739BE000030B593B020
:1039200030216846FCF73EFE14210CA8FCF73AFE55
:103930001D480025016841F080510160006800F0D9
:10394000805011901948016841F48041016000687D
:10395000022400F480401190012003901020049074
:10396000009406940820CDE90750A820CDE9090469
:1039700004200B906846FEF78DFF08B172B6FEE793
:103980000CA90F2081E831004FF4A0500F904FF4A4
:103990008050109005210CA8FEF792FE002801D05F
:1039A00072B6FEE713B030BD4038024000700040F0
:1039B0000248016841F470010160704788ED00E041
:1039C00070B5044600680169E26821F44051114372
:1039D00001612169A068E2690843616911430843F4
:1039E0002168CA6849F20C639A430243CA6020689E
:1039F0004169A26921F44071114341613149206854
:103A0000884202D03049884202D1FEF703FF01E02C
:103A1000FEF7F0FEE2690023192164253226B2F593
:103A2000004F626828D0A0FB0101930F9200FCF7C1
:103A3000CBFC0146B0FBF5F06FF01802504301EBF0
:103A4000800006EB0010B0FBF5F000F0F002B1FBD7
:103A5000F5F002EB0012B1FBF5F06FF018035843DC
:103A600001EB800006EB0010B0FBF5F000F00F005A
:103A700021681044886070BDA0FB010192185B4171
:103A8000FCF7A2FC0146B0FBF5F00201B1FBF5F03A
:103A90006FF01803584301EB800006EBC000B0FB49
:103AA000F5F000F0F80002EB4002B1FBF5F05843EE
:103AB00001EB800006EBC000B0FBF5F000F0070062
:103AC000D6E7000000100140001401402DE9F0414C
:103AD000984617460E460446069D27E0681C25D0EA
:103AE0002DB1FEF74DFDA0EB0800A8421ED92068BD
:103AF0000C3050E8001F21F4D07140E80012002A79
:103B0000F5D12068143050E8001F21F0010140E891
:103B10000012002AF5D1202084F83D0084F83E00F0
:103B2000002084F83C000320BDE8F0812068006894
:103B300036EA000004D00020B842CFD00020F3E7DE
:103B40000120F9E7FEE703B401984100009850EA2C
:103B5000C12018BF04204A0D18BF40F0010040F2F8
:103B6000FF72B2EB515F08BF40F00200012808BFAE
:103B7000052002B070470907090E002804DB00F198
:103B8000E02080F80014704700F00F0000F1E02002
:103B900080F8141D704730380A2801D20120704780
:103BA000002070472DED028B84B0FEF7F7FCFFF785
:103BB000B5FEFFF767FD32480024016841F40011AB
:103BC00001600068224600F4001000902146102099
:103BD000FEF744FD1020FEF733FDFFF7BFFD2A4836
:103BE00028494FF4E1350160C0E901540C26C46056
:103BF000C0E904468461C461FFF7FBFA08B172B6FC
:103C0000FEE72148214944300160C0E90154C46005
:103C1000C0E904468461C461FFF7EBFA08B172B6EB
:103C2000FEE719485838FFF72FFC012003460246EB
:103C30000090C8211648FFF72DFCDFF85480144887
:103C4000FFF7FAFBD8F8640000F06CFA06460F465E
:103C5000D8F8600000F066FA04460D46D8F85C001B
:103C600000F060FA41EC180BFEF78AFC8DE8F000DA
:103C7000014653EC182B07A000F016F8DFE7000010
:103C80003038024000440040F80000200048004066
:103C900004000020256420252E326620252E326661
:103CA00020252E32660A00000FB4402010B5FCF724
:103CB00035FB044603AA0299FCF7FEFB2046FCF7FD
:103CC0000DFC82B2642321460448FFF735FB2046F1
:103CD000FCF753FB10BC5DF814FB00003C01002016
:103CE00010B500290AD00878002807D00548784484
:103CF000FDF790FD002801D0002010BD0248784457
:103D000010BD0000720600006A06000010B5002910
:103D10000AD00878002807D005487844FDF77AFDD6
:103D2000002801D0002010BD0248784410BD0000DA
:103D3000620600005A06000021F00042A2F1605223
:103D4000B2F5801F01F0004328BFD2F17F6C0BD980
:103D50005FEA001C43EAC20242EB507018BF704792
:103D600028BF20F001007047B2F5801FBCBF184685
:103D700070474FEA410C1CF5001F02D2084600F0C4
:103D800047BA70B500F079F900000089FFF7F6BF77
:103D90004FF00040A0F58000704700002DE9C041C1
:103DA00030B4DFF8A0C23CEA111418BF3CEA131487
:103DB00000F0EC8081EA03051CEA111444EAD57492
:103DC00018BF1CEA131500F0C780A4EB05044FF0E0
:103DD000004545EAC12145EAC32341EA505143EA7F
:103DE000525304F17F74994204F500344FEAC02025
:103DF0004FEAC22208BF904200F09C804FEA136550
:103E00000FF24016765D4FEA134506FB05F7C7F142
:103E1000807706FB07F74FEAD737A7FB03687642A0
:103E2000C8F58038A7FB06CE38BFA8F1010807FB0C
:103E300008E64FF0000EA6FB028CE6FB03CEDCF199
:103E4000000CCEF1004E38BFAEF1010EA6FB0C58AF
:103E50004FF000074FF00005E6FB0E87A1FB08C6F8
:103E6000A0FB07CE16EB0E0645F10005E1FB07654A
:103E700015F1E04E7EBFA4F580345FEA46066D4141
:103E800016F1800745F100054FEA17274FEA06664D
:103E900047EA0567A6F1DE46B6F1805F4FEA1525D1
:103EA0001FD9384624F0010C05EBC471BCF1FE6F3C
:103EB00001EB0C1102D8F0BCBDE8008124425CBFCC
:103EC00001F5801E9EEAC47F02D4F0BCBDE80081EB
:103ED000244238D4F0BCA1F1C041BDE8004100F05B
:103EE0001AB94FEAD22242EA43524FEAD323A7FB40
:103EF00002864FEAD02040EA415007FB03661EEAE3
:103F00000E0F4FEAD12105FB026658BFA6EB005603
:103F1000B6EB00564FEA520E4EEAC37E18EB0E0E79
:103F200056EB530EBDD518EB02085E417F1C55F1D0
:103F30000005B6E74FF480154FF000074FF000067C
:103F40004FF00008ADE7F0BC4FF0000001F1C041B8
:103F500001F00041BDE8008111EA0C1F0CEA1315C5
:103F600000D00CE013EA0C1F00F025804FF0000099
:103F7000F0BC81EA030101F00041BDE80081F0BC22
:103F8000BDE8004181EA030100F0C5B8F0BCBDE81E
:103F9000004170B500F071F8097EFC3E00F007B8F2
:103FA00081EA03014FF0000001F00041704781EA0F
:103FB000030100F0B0B8F0BCBDE800414FF00000D4
:103FC00021497047FFFDFBF9F7F5F4F2F0EEEDEB58
:103FD000E9E8E6E4E3E1E0DEDDDBDAD8D7D5D4D307
:103FE000D1D0CFCDCCCBCAC8C7C6C5C4C2C1C0BF53
:103FF000BEBDBCBBBAB9B8B7B6B5B4B3B2B1B0AF59
:10400000AEADACABAAA9A8A8A7A6A5A4A3A3A2A13C
:10401000A09F9F9E9D9C9C9B9A99999897979695F7
:1040200095949393929191908F8F8E8E8D8C8C8B93
:104030008B8A89898888878786858584848383821B
:10404000828181800000FF070000F87F10F00042AD
:1040500048BF4042B0FA80F310FA03F10AD0C3F12E
:104060001D0303F580634FEA415002EB035202EB5C
:10407000D12170474FF0000070470EF1020E2EF074
:10408000030E5EF8046B364205D4012A43EB0305A8
:1040900015F5001F12D8012841EB010C1CF5001F7B
:1040A0000CD80ED14FEAD17C15F5001F0CEB4C0C4F
:1040B0000CF1020C08BF4CEBD37C04E04FF0080C71
:1040C00001E04FEAD37C0CEB4C0526FA05F606F02E
:1040D0000706B6F1040C06D20EEB860CBDE8704064
:1040E0004CF0010C6047DFE80CF0090B02024FF0C6
:1040F00000414FF00000A1F5002170BD19461046A7
:10410000012851EB010418BFD4F5001484BF00202E
:1041100001F0004170BD0808A0F500114FEA31011F
:104120007047000043004FEAD30C4FEA3C0C434079
:104130001FBF40070CF1605113F0FE4F70471CF099
:10414000006F03D100200CF0004170470CF00043D9
:1041500043EA507010B540EACC0000F00EF800BF02
:10416000000000924FEA0001FFF7D5BF4FF0004179
:104170004FF00000A1F5002170470EF1020E2EF065
:10418000030E5EF8044B244204D44FEA4102B2F11C
:104190007F4F11D84FEA4003B3F17F4F0CD80ED1B7
:1041A0004FEAD07CB2F17F4F0CEB4C0C0CF1020CBF
:1041B00008BF4CEBD17C04E04FF0080C01E04FEA63
:1041C000D17C0CEB4C0324FA03F404F00704B4F1A3
:1041D000040C06D20EEB840CBDE810404CF0010C30
:1041E0006047DFE80CF0070802024FF00040A0F53E
:1041F000800010BD0846420018BFD2F1807288BF0F
:1042000000F0004010BD4FF04070E1EE100A704722
:10421000FF2141EAD050C0057047FCF7B8BEFCF75B
:10422000EDBF00061016000610160000000000008A
:104230000000010203040607080900000000010253
:1042400003040000000000000000000030313233A1
:1042500034353637383941424344454640305800BA
:1042600030313233343536373839616263646566EC
:104270004030780004000008000000000000000248
:1042800000010000103031323334353637383961AF
:1042900062636465667870003031323334353637A6
:1042A000383941424344454658500000024000001E
:1042B000000000A00000000005400000000000C851
:1042C000000000000C4000000000409C00000000C6
:1042D000194000000020BCBE000000003440000077
:1042E000BFC91B8E00000004B5400000504BCFD06A
:1042F0006607E2CF010000006C4100003E8251AA37
:10430000DFEEA73401000000D9420000DCB5A0E2D6
:104310003A301F97FFFFFFFFB4450000FD25A0C8FE
:10432000E9A3C14FFFFFFFFFFF3F00000000008037
:1043300000000000FF3F00000000008000000000BF
:104340008C44000800000020A0000000C401000808
:104350002C450008A0000020A0070000E001000894
:104360001C00000043000000F8FFFFFF0C000000ED
:104370000E0000000F0000002E00000010010000E1
:1043800043000000F8FFFFFF004040404040404035
:104390004040414141414140404040404040404018
:1043A00040404040404040404005020202020202BC
:1043B000020202020202020202202020202020200B
:1043C000202020020202020202029090909090901F
:1043D00010101010101010101010101010101010DD
:1043E0001010101002020202020288888888888851
:1043F000080808080808080808080808080808083D
:104400000808080802020202400000000000000044
:10441000000000000000000000000000000000009C
:10442000000000000000000000000000000000008C
:10443000000000000000000000000000000000007C
:10444000000000000000000000000000000000006C
:10445000000000000000000000000000000000005C
:10446000000000000000000000000000000000004C
:10447000000000000000000000000000000000003C
:10448000000000000000000000000000000000002C
:1044900000100240080000000000000000000000C2
:1044A000000000000000000000000000000000000C
:1044B00000000000000000000000000000000000FC
:1044C00000000000000000000000000000000000EC
:1044D00000000000000000000000000000000000DC
:1044E00000000000000000000000000000000000CC
:1044F00000000000000000000000000000000000BC
:1045000000000000000000000000000000000000AB
:10451000000000000000000000000000010000009A
:0C45200010000000000000000024F40067
:040000050800018965
:00000001FF
